{
  "contractName": "MultiSignatureWallet",
  "abi": [
    {
      "inputs": [
        {
          "internalType": "address[]",
          "name": "_owners",
          "type": "address[]"
        },
        {
          "internalType": "uint256",
          "name": "_required",
          "type": "uint256"
        }
      ],
      "payable": false,
      "stateMutability": "nonpayable",
      "type": "constructor"
    },
    {
      "anonymous": false,
      "inputs": [
        {
          "indexed": true,
          "internalType": "address",
          "name": "sender",
          "type": "address"
        },
        {
          "indexed": true,
          "internalType": "uint256",
          "name": "transactionId",
          "type": "uint256"
        }
      ],
      "name": "Confirmation",
      "type": "event"
    },
    {
      "anonymous": false,
      "inputs": [
        {
          "indexed": true,
          "internalType": "uint256",
          "name": "transactionId",
          "type": "uint256"
        }
      ],
      "name": "Execution",
      "type": "event"
    },
    {
      "anonymous": false,
      "inputs": [
        {
          "indexed": true,
          "internalType": "uint256",
          "name": "transactionId",
          "type": "uint256"
        }
      ],
      "name": "ExecutionFailure",
      "type": "event"
    },
    {
      "anonymous": false,
      "inputs": [
        {
          "indexed": true,
          "internalType": "uint256",
          "name": "transactionId",
          "type": "uint256"
        }
      ],
      "name": "Submission",
      "type": "event"
    },
    {
      "payable": true,
      "stateMutability": "payable",
      "type": "fallback"
    },
    {
      "constant": true,
      "inputs": [
        {
          "internalType": "uint256",
          "name": "",
          "type": "uint256"
        },
        {
          "internalType": "address",
          "name": "",
          "type": "address"
        }
      ],
      "name": "confirmations",
      "outputs": [
        {
          "internalType": "bool",
          "name": "",
          "type": "bool"
        }
      ],
      "payable": false,
      "stateMutability": "view",
      "type": "function"
    },
    {
      "constant": true,
      "inputs": [
        {
          "internalType": "uint256",
          "name": "",
          "type": "uint256"
        }
      ],
      "name": "owners",
      "outputs": [
        {
          "internalType": "address",
          "name": "",
          "type": "address"
        }
      ],
      "payable": false,
      "stateMutability": "view",
      "type": "function"
    },
    {
      "constant": true,
      "inputs": [],
      "name": "transactionCount",
      "outputs": [
        {
          "internalType": "uint256",
          "name": "",
          "type": "uint256"
        }
      ],
      "payable": false,
      "stateMutability": "view",
      "type": "function"
    },
    {
      "constant": true,
      "inputs": [
        {
          "internalType": "uint256",
          "name": "",
          "type": "uint256"
        }
      ],
      "name": "transactions",
      "outputs": [
        {
          "internalType": "bool",
          "name": "executed",
          "type": "bool"
        },
        {
          "internalType": "address",
          "name": "destination",
          "type": "address"
        },
        {
          "internalType": "uint256",
          "name": "value",
          "type": "uint256"
        },
        {
          "internalType": "bytes",
          "name": "data",
          "type": "bytes"
        }
      ],
      "payable": false,
      "stateMutability": "view",
      "type": "function"
    },
    {
      "constant": false,
      "inputs": [
        {
          "internalType": "address",
          "name": "destination",
          "type": "address"
        },
        {
          "internalType": "uint256",
          "name": "value",
          "type": "uint256"
        },
        {
          "internalType": "bytes",
          "name": "data",
          "type": "bytes"
        }
      ],
      "name": "submitTransaction",
      "outputs": [
        {
          "internalType": "uint256",
          "name": "transactionId",
          "type": "uint256"
        }
      ],
      "payable": false,
      "stateMutability": "nonpayable",
      "type": "function"
    },
    {
      "constant": false,
      "inputs": [
        {
          "internalType": "uint256",
          "name": "transactionId",
          "type": "uint256"
        }
      ],
      "name": "confirmTransaction",
      "outputs": [],
      "payable": false,
      "stateMutability": "nonpayable",
      "type": "function"
    },
    {
      "constant": false,
      "inputs": [
        {
          "internalType": "uint256",
          "name": "transactionId",
          "type": "uint256"
        }
      ],
      "name": "revokeConfirmation",
      "outputs": [],
      "payable": false,
      "stateMutability": "nonpayable",
      "type": "function"
    },
    {
      "constant": false,
      "inputs": [
        {
          "internalType": "uint256",
          "name": "transactionId",
          "type": "uint256"
        }
      ],
      "name": "executeTransaction",
      "outputs": [],
      "payable": false,
      "stateMutability": "nonpayable",
      "type": "function"
    }
  ],
  "bytecode": "0x60806040523480156200001157600080fd5b5060405162000f8938038062000f89833981810160405260408110156200003757600080fd5b81019080805160405193929190846401000000008211156200005857600080fd5b838201915060208201858111156200006f57600080fd5b82518660208202830111640100000000821117156200008d57600080fd5b8083526020830192505050908051906020019060200280838360005b83811015620000c6578082015181840152602081019050620000a9565b505050509050016040526020018051906020019092919050505081518181811180620000f25750600081145b80620000fe5750600082145b156200010957600080fd5b60008090505b8451811015620001925760016000808784815181106200012b57fe5b602002602001015173ffffffffffffffffffffffffffffffffffffffff1673ffffffffffffffffffffffffffffffffffffffff16815260200190815260200160002060006101000a81548160ff02191690831515021790555080806001019150506200010f565b508360019080519060200190620001ab929190620001bd565b50826002819055505050505062000292565b82805482825590600052602060002090810192821562000239579160200282015b82811115620002385782518260006101000a81548173ffffffffffffffffffffffffffffffffffffffff021916908373ffffffffffffffffffffffffffffffffffffffff16021790555091602001919060010190620001de565b5b5090506200024891906200024c565b5090565b6200028f91905b808211156200028b57600081816101000a81549073ffffffffffffffffffffffffffffffffffffffff02191690555060010162000253565b5090565b90565b610ce780620002a26000396000f3fe60806040526004361061007b5760003560e01c8063b77bf6001161004e578063b77bf6001461029f578063c01a8c84146102ca578063c642747414610305578063ee22610b1461040b5761007b565b8063025e7c271461007d57806320ea8d86146100f85780633411c81c146101335780639ace38c2146101a6575b005b34801561008957600080fd5b506100b6600480360360208110156100a057600080fd5b8101908080359060200190929190505050610446565b604051808273ffffffffffffffffffffffffffffffffffffffff1673ffffffffffffffffffffffffffffffffffffffff16815260200191505060405180910390f35b34801561010457600080fd5b506101316004803603602081101561011b57600080fd5b8101908080359060200190929190505050610482565b005b34801561013f57600080fd5b5061018c6004803603604081101561015657600080fd5b8101908080359060200190929190803573ffffffffffffffffffffffffffffffffffffffff169060200190929190505050610485565b604051808215151515815260200191505060405180910390f35b3480156101b257600080fd5b506101df600480360360208110156101c957600080fd5b81019080803590602001909291905050506104b4565b60405180851515151581526020018473ffffffffffffffffffffffffffffffffffffffff1673ffffffffffffffffffffffffffffffffffffffff16815260200183815260200180602001828103825283818151815260200191508051906020019080838360005b83811015610261578082015181840152602081019050610246565b50505050905090810190601f16801561028e5780820380516001836020036101000a031916815260200191505b509550505050505060405180910390f35b3480156102ab57600080fd5b506102b46105a9565b6040518082815260200191505060405180910390f35b3480156102d657600080fd5b50610303600480360360208110156102ed57600080fd5b81019080803590602001909291905050506105af565b005b34801561031157600080fd5b506103f56004803603606081101561032857600080fd5b81019080803573ffffffffffffffffffffffffffffffffffffffff169060200190929190803590602001909291908035906020019064010000000081111561036f57600080fd5b82018360208201111561038157600080fd5b803590602001918460018302840111640100000000831117156103a357600080fd5b91908080601f016020809104026020016040519081016040528093929190818152602001838380828437600081840152601f19601f82011690508083019250505050505050919291929050505061079b565b6040518082815260200191505060405180910390f35b34801561041757600080fd5b506104446004803603602081101561042e57600080fd5b810190808035906020019092919050505061080f565b005b6001818154811061045357fe5b906000526020600020016000915054906101000a900473ffffffffffffffffffffffffffffffffffffffff1681565b50565b60056020528160005260406000206020528060005260406000206000915091509054906101000a900460ff1681565b60046020528060005260406000206000915090508060000160009054906101000a900460ff16908060000160019054906101000a900473ffffffffffffffffffffffffffffffffffffffff1690806001015490806002018054600181600116156101000203166002900480601f01602080910402602001604051908101604052809291908181526020018280546001816001161561010002031660029004801561059f5780601f106105745761010080835404028352916020019161059f565b820191906000526020600020905b81548152906001019060200180831161058257829003601f168201915b5050505050905084565b60035481565b6000803373ffffffffffffffffffffffffffffffffffffffff1673ffffffffffffffffffffffffffffffffffffffff16815260200190815260200160002060009054906101000a900460ff1661060457600080fd5b600073ffffffffffffffffffffffffffffffffffffffff166004600083815260200190815260200160002060000160019054906101000a900473ffffffffffffffffffffffffffffffffffffffff1673ffffffffffffffffffffffffffffffffffffffff16141561067457600080fd5b600015156005600083815260200190815260200160002060003373ffffffffffffffffffffffffffffffffffffffff1673ffffffffffffffffffffffffffffffffffffffff16815260200190815260200160002060009054906101000a900460ff161515146106e257600080fd5b60016005600083815260200190815260200160002060003373ffffffffffffffffffffffffffffffffffffffff1673ffffffffffffffffffffffffffffffffffffffff16815260200190815260200160002060006101000a81548160ff021916908315150217905550803373ffffffffffffffffffffffffffffffffffffffff167f4a504a94899432a9846e1aa406dceb1bcfd538bb839071d49d1e5e23f5be30ef60405160405180910390a36107988161080f565b50565b60008060003373ffffffffffffffffffffffffffffffffffffffff1673ffffffffffffffffffffffffffffffffffffffff16815260200190815260200160002060009054906101000a900460ff166107f257600080fd5b6107fd8484846109fe565b9050610808816105af565b9392505050565b600015156004600083815260200190815260200160002060000160009054906101000a900460ff1615151461084357600080fd5b61084c81610b28565b156109fb57600060046000838152602001908152602001600020905060018160000160006101000a81548160ff021916908315150217905550600060608260000160019054906101000a900473ffffffffffffffffffffffffffffffffffffffff1673ffffffffffffffffffffffffffffffffffffffff1683600101548460020160405180828054600181600116156101000203166002900480156109285780601f10610906576101008083540402835291820191610928565b820191906000526020600020905b815481529060010190602001808311610914575b505091505060006040518083038185875af1925050503d806000811461096a576040519150601f19603f3d011682016040523d82523d6000602084013e61096f565b606091505b509150915081156109ac57837f33e13ecb54c3076d8e8bb8c2881800a4d972b792045ffae98fdf46df365fed7560405160405180910390a26109f7565b837f526441bb6c1aba3c9a4a6ca1d6545da9c2333c8c48343ef398eb858d72b7923660405160405180910390a260008360000160006101000a81548160ff0219169083151502179055505b5050505b50565b6000600354905060405180608001604052806000151581526020018573ffffffffffffffffffffffffffffffffffffffff168152602001848152602001838152506004600083815260200190815260200160002060008201518160000160006101000a81548160ff02191690831515021790555060208201518160000160016101000a81548173ffffffffffffffffffffffffffffffffffffffff021916908373ffffffffffffffffffffffffffffffffffffffff160217905550604082015181600101556060820151816002019080519060200190610adf929190610c0d565b509050506001600360008282540192505081905550807fc0ba8fe4b176c1714197d43b9cc6bcf797a4a7461c5fe8d0ef6e184ae7601e5160405160405180910390a29392505050565b6000806000905060008090505b600180549050811015610c055760056000858152602001908152602001600020600060018381548110610b6457fe5b9060005260206000200160009054906101000a900473ffffffffffffffffffffffffffffffffffffffff1673ffffffffffffffffffffffffffffffffffffffff1673ffffffffffffffffffffffffffffffffffffffff16815260200190815260200160002060009054906101000a900460ff1615610be3576001820191505b600254821415610bf857600192505050610c08565b8080600101915050610b35565b50505b919050565b828054600181600116156101000203166002900490600052602060002090601f016020900481019282601f10610c4e57805160ff1916838001178555610c7c565b82800160010185558215610c7c579182015b82811115610c7b578251825591602001919060010190610c60565b5b509050610c899190610c8d565b5090565b610caf91905b80821115610cab576000816000905550600101610c93565b5090565b9056fea265627a7a72315820e773ac95dc3fc14a3964868e442112ba72ed7acf048bb8a36ecb77cf1e4cea6b64736f6c63430005100032",
  "source": "pragma solidity >0.5.0;\r\n\r\ncontract MultiSignatureWallet {\r\n    event Submission(uint indexed transactionId);\r\n    event Confirmation(address indexed sender, uint indexed transactionId);\r\n    event Execution(uint indexed transactionId);\r\n    event ExecutionFailure(uint indexed transactionId);\r\n\r\n    struct Transaction {\r\n      bool executed;\r\n      address destination;\r\n      uint value;\r\n      bytes data;\r\n    }\r\n    mapping (address => bool) isOwner;\r\n    address[] public owners;\r\n    uint required;\r\n    uint public transactionCount;\r\n    mapping (uint => Transaction) public transactions;\r\n    mapping (uint => mapping (address => bool)) public confirmations;\r\n\r\n    /// @dev Fallback function, which accepts ether when sent to contract\r\n    function() external payable {}\r\n\r\n    /*\r\n     * Public functions\r\n     */\r\n    /// @dev Contract constructor sets initial owners and required number of confirmations.\r\n    /// @param _owners List of initial owners.\r\n    /// @param _required Number of required confirmations.\r\n    constructor(address[] memory _owners, uint _required) public validRequirement(_owners.length, _required) {\r\n        for (uint i=0; i<_owners.length; i++) {\r\n             isOwner[_owners[i]] = true;\r\n         }\r\n         owners = _owners;\r\n         required = _required;\r\n    }\r\n    \r\n    modifier validRequirement(uint ownerCount, uint _required) {\r\n        if ( _required > ownerCount || _required == 0 || ownerCount == 0)\r\n              revert();\r\n             _;\r\n     }\r\n      \r\n     \r\n\r\n    /// @dev Allows an owner to submit and confirm a transaction.\r\n    /// @param destination Transaction target address.\r\n    /// @param value Transaction ether value.\r\n    /// @param data Transaction data payload.\r\n    /// @return Returns transaction ID.\r\n    function submitTransaction(address destination, uint value, bytes memory data)\r\n    public\r\n    returns (uint transactionId) {\r\n        require(isOwner[msg.sender]);\r\n        transactionId = addTransaction(destination, value, data);\r\n        confirmTransaction(transactionId);\r\n    }\r\n\r\n    /// @dev Allows an owner to confirm a transaction.\r\n    /// @param transactionId Transaction ID.\r\n    function confirmTransaction(uint transactionId) public {\r\n        require(isOwner[msg.sender]);\r\n        require(transactions[transactionId].destination != address(0));\r\n        require(confirmations[transactionId][msg.sender] == false);\r\n        confirmations[transactionId][msg.sender] = true;\r\n        emit Confirmation(msg.sender, transactionId);\r\n        executeTransaction(transactionId);\r\n    }\r\n\r\n    /// @dev Allows an owner to revoke a confirmation for a transaction.\r\n    /// @param transactionId Transaction ID.\r\n    function revokeConfirmation(uint transactionId) public {\r\n        \r\n    }\r\n\r\n    /// @dev Allows anyone to execute a confirmed transaction.\r\n    /// @param transactionId Transaction ID.\r\n    function executeTransaction(uint transactionId) public {\r\n        require(transactions[transactionId].executed == false);\r\n        if (isConfirmed(transactionId)) {\r\n            Transaction storage t = transactions[transactionId];  // using the \"storage\" keyword makes \"t\" a pointer to storage \r\n            t.executed = true;\r\n            // is a way to add ether by invoking a contract\r\n            (bool success, bytes memory returnedData) = t.destination.call.value(t.value)(t.data);\r\n            if (success)\r\n                emit Execution(transactionId);\r\n            else {\r\n                emit ExecutionFailure(transactionId);\r\n                t.executed = false;\r\n            }\r\n        }\r\n    }\r\n\r\n\t\t/*\r\n\t\t * (Possible) Helper Functions\r\n\t\t */\r\n    /// @dev Returns the confirmation status of a transaction.\r\n    /// @param transactionId Transaction ID.\r\n    /// @return Confirmation status.\r\n    function isConfirmed(uint transactionId) internal view returns (bool) {\r\n        uint count = 0;\r\n        for (uint i=0; i<owners.length; i++) {\r\n            if (confirmations[transactionId][owners[i]])\r\n                count += 1;\r\n            if (count == required)\r\n                return true;\r\n        }\r\n    }\r\n\r\n    /// @dev Adds a new transaction to the transaction mapping, if transaction does not exist yet.\r\n    /// @param destination Transaction target address.\r\n    /// @param value Transaction ether value.\r\n    /// @param data Transaction data payload.\r\n    /// @return Returns transaction ID.\r\n    function addTransaction(address destination, uint value, bytes memory data) internal returns (uint transactionId) {\r\n         transactionId = transactionCount;\r\n         transactions[transactionId] = Transaction({\r\n            destination: destination,\r\n            value: value,\r\n            data: data,\r\n            executed: false\r\n        });\r\n        transactionCount += 1;\r\n        emit Submission(transactionId);\r\n    }\r\n}\r\n",
  "sourcePath": "C:\\Users\\usuario\\cryptos\\smartContract\\multisig-wallet-exercise\\contracts\\MultiSignatureWallet.sol",
  "compiler": {
    "name": "solc",
    "version": "0.5.16+commit.9c3226ce.Emscripten.clang"
  },
  "schemaVersion": "3.4.3",
  "updatedAt": "2021-10-03T13:33:32.024Z",
  "devdoc": {
    "methods": {
      "confirmTransaction(uint256)": {
        "details": "Allows an owner to confirm a transaction.",
        "params": {
          "transactionId": "Transaction ID."
        }
      },
      "constructor": {
        "details": "Contract constructor sets initial owners and required number of confirmations.",
        "params": {
          "_owners": "List of initial owners.",
          "_required": "Number of required confirmations."
        }
      },
      "executeTransaction(uint256)": {
        "details": "Allows anyone to execute a confirmed transaction.",
        "params": {
          "transactionId": "Transaction ID."
        }
      },
      "revokeConfirmation(uint256)": {
        "details": "Allows an owner to revoke a confirmation for a transaction.",
        "params": {
          "transactionId": "Transaction ID."
        }
      },
      "submitTransaction(address,uint256,bytes)": {
        "details": "Allows an owner to submit and confirm a transaction.",
        "params": {
          "data": "Transaction data payload.",
          "destination": "Transaction target address.",
          "value": "Transaction ether value."
        },
        "return": "Returns transaction ID."
      }
    }
  },
  "userdoc": {
    "methods": {}
  }
}